{
  "contractName": "CeloElection",
  "abi": [
    {
      "anonymous": false,
      "inputs": [
        {
          "indexed": false,
          "internalType": "address",
          "name": "contractAddress",
          "type": "address"
        },
        {
          "indexed": false,
          "internalType": "address",
          "name": "Creator",
          "type": "address"
        },
        {
          "indexed": false,
          "internalType": "string",
          "name": "title",
          "type": "string"
        },
        {
          "indexed": false,
          "internalType": "string",
          "name": "description",
          "type": "string"
        },
        {
          "indexed": false,
          "internalType": "string",
          "name": "imageLink",
          "type": "string"
        },
        {
          "indexed": false,
          "internalType": "uint256",
          "name": "electionDeadline",
          "type": "uint256"
        },
        {
          "indexed": false,
          "internalType": "uint256",
          "name": "VotersCount",
          "type": "uint256"
        },
        {
          "indexed": false,
          "internalType": "uint256",
          "name": "candidatesCount",
          "type": "uint256"
        },
        {
          "indexed": false,
          "internalType": "uint256",
          "name": "electionId",
          "type": "uint256"
        }
      ],
      "name": "electionStarted",
      "type": "event"
    },
    {
      "inputs": [
        {
          "internalType": "uint256",
          "name": "",
          "type": "uint256"
        }
      ],
      "name": "listElectionID",
      "outputs": [
        {
          "internalType": "string",
          "name": "",
          "type": "string"
        }
      ],
      "stateMutability": "view",
      "type": "function"
    },
    {
      "inputs": [
        {
          "internalType": "string",
          "name": "title",
          "type": "string"
        },
        {
          "internalType": "string",
          "name": "description",
          "type": "string"
        },
        {
          "internalType": "string",
          "name": "imageLink",
          "type": "string"
        },
        {
          "internalType": "uint256",
          "name": "durationInHours",
          "type": "uint256"
        },
        {
          "internalType": "uint256",
          "name": "VotersCount",
          "type": "uint256"
        },
        {
          "internalType": "uint256",
          "name": "electionId",
          "type": "uint256"
        },
        {
          "internalType": "uint256",
          "name": "candidatesCount",
          "type": "uint256"
        }
      ],
      "name": "startElection",
      "outputs": [],
      "stateMutability": "nonpayable",
      "type": "function"
    },
    {
      "inputs": [],
      "name": "returnElections",
      "outputs": [
        {
          "internalType": "contract Election[]",
          "name": "",
          "type": "address[]"
        }
      ],
      "stateMutability": "view",
      "type": "function"
    }
  ],
  "bytecode": "0x608060405234801561001057600080fd5b50611cac806100206000396000f3fe60806040523480156200001157600080fd5b5060043610620000465760003560e01c8063018fb452146200004b57806340b730561462000081578063ffd5bfa414620000a1575b600080fd5b620000696004803603810190620000639190620004eb565b620000c3565b604051620000789190620007b9565b60405180910390f35b6200009f6004803603810190620000999190620003e6565b62000178565b005b620000ab620002b4565b604051620000ba919062000795565b60405180910390f35b60018181548110620000d457600080fd5b906000526020600020016000915090508054620000f190620009af565b80601f01602080910402602001604051908101604052809291908181526020018280546200011f90620009af565b8015620001705780601f10620001445761010080835404028352916020019162000170565b820191906000526020600020905b8154815290600101906020018083116200015257829003601f168201915b505050505081565b6000620001a562000195610e10876200034490919063ffffffff16565b426200035c90919063ffffffff16565b9050600033848d8d8d8d8d8d89604051620001c09062000374565b620001d49998979695949392919062000653565b604051809103906000f080158015620001f1573d6000803e3d6000fd5b5090506000819080600181540180825580915050600190039060005260206000200160009091909190916101000a81548173ffffffffffffffffffffffffffffffffffffffff021916908373ffffffffffffffffffffffffffffffffffffffff1602179055507fa759b75751a7823dcb9a0fa2cef97646fc9d18541c8b4d02180a3b8dbbba058281338e8e8e8e8e8e8a8e8d8f6040516200029e9c9b9a99989796959493929190620006db565b60405180910390a1505050505050505050505050565b606060008054806020026020016040519081016040528092919081815260200182805480156200033a57602002820191906000526020600020905b8160009054906101000a900473ffffffffffffffffffffffffffffffffffffffff1673ffffffffffffffffffffffffffffffffffffffff1681526020019060010190808311620002ef575b5050505050905090565b600081836200035491906200088f565b905092915050565b600081836200036c919062000832565b905092915050565b6112088062000a6f83390190565b60008083601f8401126200039557600080fd5b8235905067ffffffffffffffff811115620003af57600080fd5b602083019150836001820283011115620003c857600080fd5b9250929050565b600081359050620003e08162000a54565b92915050565b60008060008060008060008060008060e08b8d0312156200040657600080fd5b60008b013567ffffffffffffffff8111156200042157600080fd5b6200042f8d828e0162000382565b9a509a505060208b013567ffffffffffffffff8111156200044f57600080fd5b6200045d8d828e0162000382565b985098505060408b013567ffffffffffffffff8111156200047d57600080fd5b6200048b8d828e0162000382565b96509650506060620004a08d828e01620003cf565b9450506080620004b38d828e01620003cf565b93505060a0620004c68d828e01620003cf565b92505060c0620004d98d828e01620003cf565b9150509295989b9194979a5092959850565b600060208284031215620004fe57600080fd5b60006200050e84828501620003cf565b91505092915050565b6000620005258383620005bd565b60208301905092915050565b6200053c8162000904565b82525050565b6200054d81620008f0565b82525050565b60006200056082620007ed565b6200056c818562000810565b93506200057983620007dd565b8060005b83811015620005b057815162000594888262000517565b9750620005a18362000803565b9250506001810190506200057d565b5085935050505092915050565b620005c88162000942565b82525050565b6000620005dc838562000821565b9350620005eb8385846200096a565b620005f68362000a43565b840190509392505050565b60006200060e82620007f8565b6200061a818562000821565b93506200062c81856020860162000979565b620006378162000a43565b840191505092915050565b6200064d8162000938565b82525050565b600060c0820190506200066a600083018c62000531565b62000679602083018b62000642565b81810360408301526200068e81898b620005ce565b90508181036060830152620006a5818789620005ce565b90508181036080830152620006bc818587620005ce565b9050620006cd60a083018462000642565b9a9950505050505050505050565b600061012082019050620006f3600083018f62000542565b62000702602083018e62000542565b818103604083015262000717818c8e620005ce565b905081810360608301526200072e818a8c620005ce565b905081810360808301526200074581888a620005ce565b90506200075660a083018762000642565b6200076560c083018662000642565b6200077460e083018562000642565b6200078461010083018462000642565b9d9c50505050505050505050505050565b60006020820190508181036000830152620007b1818462000553565b905092915050565b60006020820190508181036000830152620007d5818462000601565b905092915050565b6000819050602082019050919050565b600081519050919050565b600081519050919050565b6000602082019050919050565b600082825260208201905092915050565b600082825260208201905092915050565b60006200083f8262000938565b91506200084c8362000938565b9250827fffffffffffffffffffffffffffffffffffffffffffffffffffffffffffffffff03821115620008845762000883620009e5565b5b828201905092915050565b60006200089c8262000938565b9150620008a98362000938565b9250817fffffffffffffffffffffffffffffffffffffffffffffffffffffffffffffffff0483118215151615620008e557620008e4620009e5565b5b828202905092915050565b6000620008fd8262000918565b9050919050565b6000620009118262000918565b9050919050565b600073ffffffffffffffffffffffffffffffffffffffff82169050919050565b6000819050919050565b60006200094f8262000956565b9050919050565b6000620009638262000918565b9050919050565b82818337600083830152505050565b60005b83811015620009995780820151818401526020810190506200097c565b83811115620009a9576000848401525b50505050565b60006002820490506001821680620009c857607f821691505b60208210811415620009df57620009de62000a14565b5b50919050565b7f4e487b7100000000000000000000000000000000000000000000000000000000600052601160045260246000fd5b7f4e487b7100000000000000000000000000000000000000000000000000000000600052602260045260246000fd5b6000601f19601f8301169050919050565b62000a5f8162000938565b811462000a6b57600080fd5b5056fe60806040526000600960006101000a81548160ff0219169083600281111562000051577f4e487b7100000000000000000000000000000000000000000000000000000000600052602160045260246000fd5b02179055503480156200006357600080fd5b50604051620012083803806200120883398181016040528101906200008991906200028e565b856000806101000a81548173ffffffffffffffffffffffffffffffffffffffff021916908373ffffffffffffffffffffffffffffffffffffffff160217905550846001819055508360059080519060200190620000e89291906200013e565b508260069080519060200190620001019291906200013e565b5081600790805190602001906200011a9291906200013e565b50806004819055506000600381905550600060028190555050505050505062000512565b8280546200014c906200044a565b90600052602060002090601f016020900481019282620001705760008555620001bc565b82601f106200018b57805160ff1916838001178555620001bc565b82800160010185558215620001bc579182015b82811115620001bb5782518255916020019190600101906200019e565b5b509050620001cb9190620001cf565b5090565b5b80821115620001ea576000816000905550600101620001d0565b5090565b600062000205620001ff84620003a3565b6200036f565b9050828152602081018484840111156200021e57600080fd5b6200022b84828562000414565b509392505050565b6000815190506200024481620004de565b92915050565b600082601f8301126200025c57600080fd5b81516200026e848260208601620001ee565b91505092915050565b6000815190506200028881620004f8565b92915050565b60008060008060008060c08789031215620002a857600080fd5b6000620002b889828a0162000233565b9650506020620002cb89828a0162000277565b955050604087015167ffffffffffffffff811115620002e957600080fd5b620002f789828a016200024a565b945050606087015167ffffffffffffffff8111156200031557600080fd5b6200032389828a016200024a565b935050608087015167ffffffffffffffff8111156200034157600080fd5b6200034f89828a016200024a565b92505060a06200036289828a0162000277565b9150509295509295509295565b6000604051905081810181811067ffffffffffffffff82111715620003995762000398620004af565b5b8060405250919050565b600067ffffffffffffffff821115620003c157620003c0620004af565b5b601f19601f8301169050602081019050919050565b6000620003e382620003ea565b9050919050565b600073ffffffffffffffffffffffffffffffffffffffff82169050919050565b6000819050919050565b60005b838110156200043457808201518184015260208101905062000417565b8381111562000444576000848401525b50505050565b600060028204905060018216806200046357607f821691505b602082108114156200047a576200047962000480565b5b50919050565b7f4e487b7100000000000000000000000000000000000000000000000000000000600052602260045260246000fd5b7f4e487b7100000000000000000000000000000000000000000000000000000000600052604160045260246000fd5b620004e981620003d6565b8114620004f557600080fd5b50565b62000503816200040a565b81146200050f57600080fd5b50565b610ce680620005226000396000f3fe608060405234801561001057600080fd5b50600436106100cf5760003560e01c8063a3ec138d1161008c578063c35fa01511610066578063c35fa015146101f2578063caf7b759146101fc578063d3d8b9a21461021a578063e23cec7b14610238576100cf565b8063a3ec138d14610188578063b384abef146101b8578063c19d93fb146101d4576100cf565b806302d05d3f146100d4578063051364d4146100f25780632d35a8a21461011057806343d191b21461012e5780634a79d50c1461014c5780637284e4161461016a575b600080fd5b6100dc610254565b6040516100e9919061095a565b60405180910390f35b6100fa610278565b60405161010791906109cd565b60405180910390f35b61011861027e565b60405161012591906109cd565b60405180910390f35b610136610284565b60405161014391906109cd565b60405180910390f35b61015461028a565b60405161016191906109ab565b60405180910390f35b610172610318565b60405161017f91906109ab565b60405180910390f35b6101a2600480360381019061019d919061082c565b6103a6565b6040516101af9190610975565b60405180910390f35b6101d260048036038101906101cd91906108a9565b6103c6565b005b6101dc61052b565b6040516101e99190610990565b60405180910390f35b6101fa61053e565b005b61020461059b565b60405161021191906109ab565b60405180910390f35b610222610629565b60405161022f91906109cd565b60405180910390f35b610252600480360381019061024d9190610855565b61062f565b005b60008054906101000a900473ffffffffffffffffffffffffffffffffffffffff1681565b60015481565b60035481565b60025481565b6005805461029790610b26565b80601f01602080910402602001604051908101604052809291908181526020018280546102c390610b26565b80156103105780601f106102e557610100808354040283529160200191610310565b820191906000526020600020905b8154815290600101906020018083116102f357829003601f168201915b505050505081565b6006805461032590610b26565b80601f016020809104026020016040519081016040528092919081815260200182805461035190610b26565b801561039e5780601f106103735761010080835404028352916020019161039e565b820191906000526020600020905b81548152906001019060200180831161038157829003601f168201915b505050505081565b600a6020528060005260406000206000915054906101000a900460ff1681565b600a60003373ffffffffffffffffffffffffffffffffffffffff1673ffffffffffffffffffffffffffffffffffffffff16815260200190815260200160002060009054906101000a900460ff161561041d57600080fd5b60008211801561042f57506003548211155b61043857600080fd5b6001600a60003373ffffffffffffffffffffffffffffffffffffffff1673ffffffffffffffffffffffffffffffffffffffff16815260200190815260200160002060006101000a81548160ff021916908315150217905550600882815481106104ca577f4e487b7100000000000000000000000000000000000000000000000000000000600052603260045260246000fd5b906000526020600020906004020160030160008154809291906104ec90610b58565b919050555080827fb7e338857470376b2fa57b9b2cbf51a8724d543a80bf4fb392a2aa9dad1118a260405160405180910390a361052761053e565b5050565b600960009054906101000a900460ff1681565b6004544210610599576002600960006101000a81548160ff02191690836002811115610593577f4e487b7100000000000000000000000000000000000000000000000000000000600052602160045260246000fd5b02179055505b565b600780546105a890610b26565b80601f01602080910402602001604051908101604052809291908181526020018280546105d490610b26565b80156106215780601f106105f657610100808354040283529160200191610621565b820191906000526020600020905b81548152906001019060200180831161060457829003601f168201915b505050505081565b60045481565b6003600081548092919061064290610b58565b91905055506040518060800160405280600354815260200182815260200183815260200160008152506008600354815481106106a7577f4e487b7100000000000000000000000000000000000000000000000000000000600052603260045260246000fd5b9060005260206000209060040201600082015181600001556020820151816001015560408201518160020190805190602001906106e59291906106f7565b50606082015181600301559050505050565b82805461070390610b26565b90600052602060002090601f016020900481019282610725576000855561076c565b82601f1061073e57805160ff191683800117855561076c565b8280016001018555821561076c579182015b8281111561076b578251825591602001919060010190610750565b5b509050610779919061077d565b5090565b5b8082111561079657600081600090555060010161077e565b5090565b60006107ad6107a884610a19565b6109e8565b9050828152602081018484840111156107c557600080fd5b6107d0848285610ae4565b509392505050565b6000813590506107e781610c82565b92915050565b600082601f8301126107fe57600080fd5b813561080e84826020860161079a565b91505092915050565b60008135905061082681610c99565b92915050565b60006020828403121561083e57600080fd5b600061084c848285016107d8565b91505092915050565b6000806040838503121561086857600080fd5b600083013567ffffffffffffffff81111561088257600080fd5b61088e858286016107ed565b925050602061089f85828601610817565b9150509250929050565b600080604083850312156108bc57600080fd5b60006108ca85828601610817565b92505060206108db85828601610817565b9150509250929050565b6108ee81610a77565b82525050565b6108fd81610a89565b82525050565b61090c81610ad2565b82525050565b600061091d82610a49565b6109278185610a54565b9350610937818560208601610af3565b61094081610c5d565b840191505092915050565b61095481610ac8565b82525050565b600060208201905061096f60008301846108e5565b92915050565b600060208201905061098a60008301846108f4565b92915050565b60006020820190506109a56000830184610903565b92915050565b600060208201905081810360008301526109c58184610912565b905092915050565b60006020820190506109e2600083018461094b565b92915050565b6000604051905081810181811067ffffffffffffffff82111715610a0f57610a0e610c2e565b5b8060405250919050565b600067ffffffffffffffff821115610a3457610a33610c2e565b5b601f19601f8301169050602081019050919050565b600081519050919050565b600082825260208201905092915050565b6000610a7082610aa8565b9050919050565b6000610a8282610aa8565b9050919050565b60008115159050919050565b6000819050610aa382610c6e565b919050565b600073ffffffffffffffffffffffffffffffffffffffff82169050919050565b6000819050919050565b6000610add82610a95565b9050919050565b82818337600083830152505050565b60005b83811015610b11578082015181840152602081019050610af6565b83811115610b20576000848401525b50505050565b60006002820490506001821680610b3e57607f821691505b60208210811415610b5257610b51610bff565b5b50919050565b6000610b6382610ac8565b91507fffffffffffffffffffffffffffffffffffffffffffffffffffffffffffffffff821415610b9657610b95610ba1565b5b600182019050919050565b7f4e487b7100000000000000000000000000000000000000000000000000000000600052601160045260246000fd5b7f4e487b7100000000000000000000000000000000000000000000000000000000600052602160045260246000fd5b7f4e487b7100000000000000000000000000000000000000000000000000000000600052602260045260246000fd5b7f4e487b7100000000000000000000000000000000000000000000000000000000600052604160045260246000fd5b6000601f19601f8301169050919050565b60038110610c7f57610c7e610bd0565b5b50565b610c8b81610a65565b8114610c9657600080fd5b50565b610ca281610ac8565b8114610cad57600080fd5b5056fea2646970667358221220a0984ece362d2524d7b41c9384719a51e7b99fd890df064f850db9a37d8f7d9464736f6c63430008000033a2646970667358221220b273e8a678018ad95ebf2648c58aeb94870921ae6a4cb89709c087b659fec84664736f6c63430008000033",
  "immutableReferences": {},
  "source": "//SPDX-License-Identifier: UNLICENSED\r\n\r\npragma solidity >=0.4.22 <0.9.0;\r\n\r\n// Importing OpenZeppelin's SafeMath Implementation\r\nimport \"@openzeppelin/contracts/utils/math/SafeMath.sol\";\r\n\r\n// IERC-20 contract \r\nimport \"@openzeppelin/contracts/token/ERC20/IERC20.sol\";\r\n\r\ncontract CeloElection {\r\n  // SafeMath for safe integer operations\r\n  using SafeMath for uint256;\r\n\r\n  // List of all the elections\r\n  Election[] private elections;\r\n  string[] public listElectionID;\r\n\r\n  // event for when new election starts\r\n  event electionStarted(\r\n    address contractAddress,\r\n    address Creator,\r\n    string title,\r\n    string description,\r\n    string imageLink,\r\n    uint256 electionDeadline,\r\n    uint256 VotersCount,  \r\n    uint candidatesCount,\r\n    uint electionId\r\n  );\r\n\r\n  function startElection(\r\n    string calldata title, \r\n    string calldata description,\r\n    string calldata imageLink,\r\n    uint durationInHours,\r\n    uint VotersCount,  \r\n    uint electionId,\r\n    uint candidatesCount\r\n  ) external {\r\n    uint raiseUntil = block.timestamp.add(durationInHours.mul(1 hours));\r\n    \r\n    Election newElection = new Election(payable(msg.sender), electionId, title, description, imageLink, raiseUntil );\r\n    elections.push(newElection);\r\n    \r\n    emit electionStarted(\r\n      address(newElection),\r\n      msg.sender,\r\n      title,\r\n      description,\r\n      imageLink,\r\n      raiseUntil,\r\n      VotersCount,\r\n      candidatesCount,\r\n      electionId\r\n    );\r\n  }\r\n\r\n  function returnElections() external view returns(Election[] memory) {\r\n    return elections;\r\n  }\r\n\r\n}\r\n\r\ncontract Election {\r\n  using SafeMath for uint256;\r\n  // in order to keep track of a Election's current state\r\n  enum ElectionState { \r\n    Voting,\r\n    Canceled,\r\n    Successful\r\n  }\r\n  struct Candidate {\r\n      uint id;\r\n      uint electionId;\r\n      string name;\r\n      uint voteCount;\r\n    }\r\n    \r\n  // Initialize public variables\r\n  address payable public creator;\r\n  uint public electionId;\r\n  uint256 public VotersCount;    // the total number of voter\r\n  uint public candidatesCount;   // the number of candidates\r\n  uint public electionDeadline;\r\n  string public title;\r\n  string public description;\r\n  string public imageLink;\r\n\r\n  //List of all the candidates\r\n  Candidate[] private candidates;\r\n\r\n  // Initialize state at fundraising\r\n  ElectionState public state = ElectionState.Voting;  \r\n\r\n  // Store accounts that have voted\r\n  mapping(address => bool) public voters;\r\n//   // Read/write candidates\r\n//   mapping(uint => Candidate) public candidates;\r\n  \r\n  // Event when someone vote\r\n    event votedEvent(uint indexed _candidateId, uint indexed _electionId);\r\n//   event Voted(address voter, uint Candidate);\r\n\r\n  modifier theState(ElectionState _state) {\r\n    require(state == _state);\r\n   _;\r\n  }\r\n  constructor (\r\n    address payable electionCreator,\r\n    uint electionID,\r\n    string memory electionTitle, \r\n    string memory electionDescription,\r\n    string memory electionImageLink,\r\n    uint electionDl\r\n  ) {\r\n    creator = electionCreator;\r\n    electionId = electionID;\r\n    title = electionTitle; \r\n    description = electionDescription; \r\n    imageLink = electionImageLink; \r\n    electionDeadline = electionDl;\r\n    candidatesCount = 0;\r\n    VotersCount = 0;\r\n    }\r\n\r\n    function addCandidate (string memory _name, uint _electionId) public {\r\n        candidatesCount ++;\r\n        candidates[candidatesCount] = Candidate(candidatesCount, _electionId, _name, 0);\r\n        }\r\n\r\n    function vote (uint _candidateId, uint _electionId) public {\r\n\r\n        // require that they haven't voted before\r\n        require(!voters[msg.sender]);\r\n\r\n        // require a valid candidate\r\n        require(_candidateId > 0 && _candidateId <= candidatesCount);\r\n\r\n        // record that voter has voted\r\n        voters[msg.sender] = true;\r\n\r\n        // update candidate vote Count\r\n        candidates[_candidateId].voteCount ++;\r\n        \r\n        // trigger voted event\r\n        emit votedEvent(_candidateId, _electionId);\r\n\r\n        checkIfElectionSuccessful();\r\n\r\n    }\r\n    function checkIfElectionSuccessful() public {\r\n    if (block.timestamp >= electionDeadline) {\r\n        state = ElectionState.Successful;\r\n    }\r\n    } \r\n    \r\n}\r\n",
  "sourcePath": "C:/Users/Salim/Desktop/Voters/VOTErs/contracts/Election.sol",
  "compiler": {
    "name": "solc",
    "version": "0.8.0+commit.c7dfd78e.Emscripten.clang"
  },
  "schemaVersion": "3.4.1",
  "updatedAt": "2022-01-09T19:09:17.081Z",
  "devdoc": {
    "kind": "dev",
    "methods": {},
    "version": 1
  },
  "userdoc": {
    "kind": "user",
    "methods": {},
    "version": 1
  }
}